S017000074657374696E672070726F6A6563742E73726563F8
S11300005DC100007AC1000078C1000076C1000023
S113001074C1000072C1000070C100006EC1000014
S11300206CC100006AC1000068C1000066C1000024
S113003064C100000C94460C60C100005EC1000065
S11300405CC100005AC1000058C1000056C1000044
S113005054C1000052C1000050C100004EC1000054
S11300604CC100004AC1000048C1000046C1000064
S113007044C1000042C1000040C100003EC1000074
S11300803CC100003AC1000038C100006407DC052F
S11300900A06360662068D06B806E3060E07390719
S11300A07107CF0774077F078A079507A007AB0777
S11300B0B607C3077309DE070B08380865089208FA
S11300C0BF08EC08190946098009DE0983098E096D
S11300D09909A409AF09BA09C509D20900000000A9
S11300E00000005F00000007000700147F147F1465
S11300F0242A7F2A122313086462364955225000A9
S113010005030000001C2241000041221C001408C9
S11301103E081408083E080800503000000808088B
S11301200808006060000020100804023E514945A0
S11301303E00427F400042615149462141454B31D6
S11301401814127F1027454545393C4A4949300166
S1130150710905033649494936064949291E0036BD
S1130160360000005636000008142241001414140E
S1130170141400412214080201510906324979413C
S11301803E7E1111117E7F494949363E414141224B
S11301907F4141221C7F494949417F090909013EA8
S11301A04149497A7F0808087F00417F4100204087
S11301B0413F017F081422417F404040407F020CB0
S11301C0027F7F0408107F3E4141413E7F090909B7
S11301D0063E4151215E7F09192946464949493164
S11301E001017F01013F4040403F1F2040201F3F4D
S11301F04038403F631408146307087008076151CE
S1130200494543007F414100020408102000414158
S11302107F00040201020440404040400001020407
S11302200020545454787F4844443838444444208B
S1130230384444487F3854545418087E0901020C49
S11302405252523E7F0804047800447D400020400E
S1130250443D007F1028440000417F40007C041886
S113026004787C0804047838444444387C14141416
S113027008081414187C7C080404084854545420B6
S1130280043F4440203C4040207C1C2040201C3C37
S11302904030403C44281028440C5050503C4464A6
S11302A0544C44000836410000007F0000004136F1
S11302B008001008081008000000000011241FBEE8
S11302C0CFEFD0E4DEBFCDBF11E0A0E0B1E0E8E8BD
S11302D0FDE100E00BBF02C007900D92A433B1070B
S11302E0D9F723E0A4E3B1E001C01D92AC3CB2070E
S11302F0E1F70E94D60C0C94C20E82CE419866237C
S113030011F0429A15C0429813C0AC01022E02C0EB
S1130310559547950A94E2F740FF02C0439A01C0FD
S11303204398449A44982150310978F7419A0895A2
S113033027E030E090E0E9CF60E0E0CF089581303D
S1130340910559F024F4892B09F448C02CC082305B
S11303509105C9F00397F9F026C020913603309136
S113036037032C394FEF34072CF440910501463004
S113037008F040C0253631050CF43FC0209105013A
S11303802F3410F1089520913603309137032C391E
S11303903F4F3CF50FC0809136039091370385366B
S11303A0910514F111C0109283031092850380E02B
S11303B090E00895209105012530F9F02150209313
S11303C0050182E090E00895809105018F3479F071
S11303D08F5F8093050183E090E0089581E090E0D1
S11303E0089581E090E0089581E090E0089583E02D
S11303F090E0089520910501E1CF089581309105A1
S113040059F024F4892B09F448C02CC0823091059A
S1130410C9F00397F9F026C02091C8033091C903AD
S11304202C394FEF34072CF440910401463008F086
S113043040C0253631050CF43FC0209104012F340F
S113044010F108952091C8033091C9032C393F4F0E
S11304503CF50FC08091C8039091C903853691057E
S113046014F111C0109283031092850380E090E090
S11304700895209104012530F9F0215020930401BE
S113048082E090E00895809104018F3479F08F5FC9
S11304908093040183E090E0089581E090E0089562
S11304A081E090E0089581E090E0089583E090E099
S11304B0089520910401E1CF08952F923F924F9225
S11304C05F926F927F928F929F92AF92BF92CF92E0
S11304D0DF92EF92FF920F931F93CF93DF93CDB7E9
S11304E0DEB72A970FB6F894DEBF0FBECDBF8C01DE
S11304F08130910551F024F4009709F4FAC234C311
S1130500873091050CF030C3F4C22090090130907B
S11305100401231409F4A0C0222D30E0832D90E0BF
S1130520AC01415051092417350709F495C0BC01A9
S1130530625071092617370709F48EC0FC013397FE
S11305402E173F0709F488C0DC011497BC83AB83E2
S11305502A173B0709F480C01197BA83A9832A1785
S11305603B0709F479C02C01BFEF4B1A5B0A241531
S1130570350509F471C07C01A2E0EA0EF11C2E15C8
S11305803F0509F469C05C01B3E0AB0EB11C2A1548
S11305903B0509F461C04C01A4E08A0E911C2815A6
S11305A0390509F459C03C01B5E06B0E711C2615E0
S11305B0370509F451C06901A1E0CA1AD1088C15A4
S11305C09D0509F449C04C155D0509F445C06C1539
S11305D07D0509F441C0EC15FD05F1F1AB81BC8149
S11305E0AC15BD05C9F1A981BA81AC15BD05A1F150
S11305F04C145D0489F1EC14FD0471F1AC14BD04D8
S113060059F18C149D0441F16C147D0429F12F5F80
S11306103F4F8217930701F142175307E9F062171E
S11306207307D1F0E217F307B9F0EB81FC81E2170D
S1130630F30791F0A217B30779F04216530661F05D
S1130640E216F30649F0A216B30631F082169306B9
S113065019F06216730631F4809108018C3211F49A
S113066002E010E080910501281609F4AFC0422D84
S113067050E0282F30E0B90161507109461757073F
S113068009F4A4C0D9011297BC83AB834A175B0752
S113069009F49CC0F9013397FE83ED834E175F077D
S11306A009F494C01297B887AF834A175B0709F41B
S11306B08DC02901B5E04B1A51084415550509F4BC
S11306C085C06901EFEFCE1ADE0A4C155D0509F409
S11306D07DC05901F2E0AF0EB11C4A155B0509F467
S11306E075C0490193E0890E911C4815590509F418
S11306F06DC03901A4E06A0E711C4615570509F452
S113070065C0F9013596FA83E9834E175F0709F44A
S11307105DC07A01F1E0EF1AF1082E153F0509F4E6
S113072055C06E157F0509F451C0AB81BC81AE156F
S1130730BF0509F44BC0ED81FE81EE15FF0509F4F8
S113074045C0AF81B885AE15BF0509F43FC04E144E
S11307505F04E1F1CE14DF04C9F1AE14BF04B1F1BA
S11307608E149F0499F16E147F0481F1E981FA815A
S1130770EE15FF0559F14F5F5F4F2417350731F12F
S11307806417750719F12B813C8124173507F1F0A3
S1130790AD81BE81A417B507C9F0EF81F885E417D0
S11307A0F507A1F04416550689F0C416D50671F074
S11307B0A416B50659F08416950641F0641675061C
S11307C029F029813A812417350731F490910801E1
S11307D0923011F402E010E020910701321609F47E
S11307E0B5C0622F70E0432D50E0DA011197BE834B
S11307F0AD836A177B0709F4A9C0FA013297F88719
S1130800EF836E177F0709F4A1C01297BA87A987EF
S11308106A177B0709F49AC02A01B4E04B1A5108FD
S11308206415750509F492C07A01E5E0EE1AF10841
S11308306E157F0509F48AC05A01FFEFAF1ABF0A8B
S11308406A157B0509F482C04A0132E0830E911CCB
S11308506815790509F47AC03A0193E0690E711CB0
S11308606615770509F472C0DA011496BA83A98370
S11308706A177B0709F46AC0FA013596FC83EB8397
S11308806E177F0709F462C06B01F1E0CF1AD1083B
S11308904C155D0509F45AC0AD81BE81AC15BD058A
S11308A009F454C0EF81F885EC15FD0509F44EC038
S11308B0A985BA85AC15BD0509F448C04C145D047E
S11308C009F444C0EC14FD0409F440C0AC14BD04A4
S11308D0E9F18C149D04D1F16C147D04B9F1E98122
S11308E0FA81EC15FD0591F1AB81BC81AC15BD0518
S11308F069F16F5F7F4F4617570741F1ED81FE8124
S1130900E617F70719F14F81588546175707F1F095
S1130910A985BA85A617B707C9F046165706B1F0D8
S1130920E616F70699F0A616B70681F0861697061E
S113093069F06616770651F0E981FA81E617F70740
S113094029F04B815C814617570749F490910601C1
S11309509C3229F491E09093340104E010E0821772
S113096009F49EC030E090E0AC01415051092417D5
S1130970350709F495C0BC01625071092617370781
S113098009F48EC0FC0133972E173F0709F488C081
S1130990DC011497BC83AB832A173B0709F480C09E
S11309A01197BA83A9832A173B0709F479C02C014C
S11309B0BFEF4B1A5B0A2415350509F471C07C019D
S11309C0A2E0EA0EF11C2E153F0509F469C05C0192
S11309D0B3E0AB0EB11C2A153B0509F461C04C0110
S11309E0A4E08A0E911C2815390509F459C03C016C
S11309F0B5E06B0E711C2615370509F451C0690169
S1130A00A1E0CA1AD1088C159D0509F449C04C15FA
S1130A105D0509F445C06C157D0509F441C0EC156C
S1130A20FD05F1F1AB81BC81AC15BD05C9F1A9810E
S1130A30BA81AC15BD05A1F14C145D0489F1EC1427
S1130A40FD0471F1AC14BD0459F18C149D0441F101
S1130A506C147D0429F12F5F3F4F8217930701F136
S1130A6042175307E9F062177307D1F0E217F3074F
S1130A70B9F0EB81FC81E217F30791F0A217B307F9
S1130A8079F04216530661F0E216F30649F0A21615
S1130A90B30631F08216930619F06216730649F410
S1130AA080910601823029F481E08093340104E0CE
S1130AB010E0F2E02F1621F022E5221206C003C056
S1130AC003E010E002C003E010E0809108018823F5
S1130AD049F090910601911102C005E010E08F32B7
S1130AE098F502C005E010E0809106018E3278F19D
S1130AF002C001E010E004301105B9F03CF402300A
S1130B00110559F00330110561F030C005301105AD
S1130B1081F00630110551F51CC081E08093360147
S1130B2025C082E08093360121C081E080933501A5
S1130B301DC0809182038F5F8093820381E0809344
S1130B4038038093840312C006E010E002C006E07C
S1130B5010E0809186038F5F8093860381E0809309
S1130B6038038093810302C000E010E0C8012A9694
S1130B700FB6F894DEBF0FBECDBFDF91CF911F91AA
S1130B800F91FF90EF90DF90CF90BF90AF909F9028
S1130B908F907F906F905F904F903F902F9008952B
S1130BA0CF93DF93EC018A30910508F09AC1FC01E0
S1130BB0EA5BFF4F0C94080E0E94570E87709078E2
S1130BC0992324F40197886F9F6F01968F5F81307A
S1130BD029F0823041F0833059F002C0C2E0D0E005
S1130BE0843061F002C0C3E0D0E0853069F002C017
S1130BF0C4E0D0E0863009F46AC102C0C5E0D0E0A8
S1130C00873009F4B3C102C0C6E0D0E0883009F4EB
S1130C10BAC15FC180913601813091F40E94570EB0
S1130C2081709078992324F401978E6F9F6F0196B9
S1130C308F5F813041F0823049F02C2F9D2F08C006
S1130C402C2F9D2F05C028E090E002C029E090E001
S1130C5080913601823029F0882329F0C22FD92FC0
S1130C6002C0C4E0D0E01092360133C18091360155
S1130C70813091F40E94570E81709078992324F466
S1130C8001978E6F9F6F01968F5F813041F08230A4
S1130C9049F02C2F9D2F08C02C2F9D2F05C028E034
S1130CA090E002C029E090E080913601823029F082
S1130CB0882329F0C22FD92F02C0C4E0D0E01092BB
S1130CC0360107C180913601813089F4F0D78170F3
S1130CD09078992324F401978E6F9F6F01968F5F0C
S1130CE0813041F0823049F02C2F9D2F08C02C2FE9
S1130CF09D2F05C026E090E002C027E090E080919F
S1130D003601823029F0882329F0C22FD92F02C05E
S1130D10C3E0D0E010923601DCC08091360181300E
S1130D2089F4C5D781709078992324F401978E6F44
S1130D309F6F01968F5F813041F0823049F02C2FF4
S1130D409D2F08C02C2F9D2F05C026E090E002C0E7
S1130D5027E090E080913601823029F0882329F041
S1130D60C22FD92F02C0C2E0D0E010923601B1C028
S1130D7080913601813089F49AD7817090789923D3
S1130D8024F401978E6F9F6F01968F5F813041F03D
S1130D90823049F02C2F9D2F08C02C2F9D2F05C089
S1130DA025E090E002C024E090E08091360182309A
S1130DB029F0882329F0C22FD92F02C0C9E0D0E03E
S1130DC01092360186C080913601813089F46FD744
S1130DD081709078992324F401978E6F9F6F019608
S1130DE08F5F813041F0823049F02C2F9D2F08C055
S1130DF02C2F9D2F05C024E090E002C025E090E058
S1130E0080913601823029F0882329F0C22FD92F0E
S1130E1002C0C8E0D0E0109236015BC08091360178
S1130E20813089F444D781709078992324F4019710
S1130E308E6F9F6F01968F5F813041F0823049F051
S1130E402C2F9D2F08C02C2F9D2F05C022E090E051
S1130E5002C023E090E080913601823029F088239B
S1130E6029F0C22FD92F02C0C7E0D0E0109236017A
S1130E7030C080913601813089F419D7817090781F
S1130E80992324F401978E6F9F6F01968F5F8130B1
S1130E9041F0823049F02C2F9D2F08C02C2F9D2F1C
S1130EA005C022E090E002C023E090E0809136018A
S1130EB0823029F0882329F0C22FD92F02C0C6E03E
S1130EC0D0E01092360105C0C1E0D0E002C0C7E016
S1130ED0D0E0CA30D10508F062C0FE01E05BFF4FEC
S1130EE097C6C1E0D0E05BC0809109018150809336
S1130EF00901809108018F5F8093080150C080919F
S1130F000901815080930901809108018E5F8093CB
S1130F10080145C0809109018F5F80930901809188
S1130F2008018E5F809308013AC0809109018F5FA8
S1130F3080930901809108018F5F809308012FC07D
S1130F40809109018F5F809309018091080181508C
S1130F508093080124C0809109018F5F8093090167
S1130F608091080182508093080119C08091090181
S1130F708150809309018091080182508093080177
S1130F80C8E0D0E00CC08091090181508093090130
S1130F9080910801815080930801C9E0D0E0CE011E
S1130FA0DF91CF910895CF93DF93EC018A309105BF
S1130FB008F0A6C1FC01E65AFF4F2AC678D687700E
S1130FC09078992324F40197886F9F6F01968F5F1F
S1130FD0813029F0823041F0833059F002C0C2E000
S1130FE0D0E0843061F002C0C3E0D0E0853069F025
S1130FF002C0C4E0D0E0863009F478C102C0C5E084
S1131000D0E0873009F4C1C102C0C6E0D0E0883026
S113101009F4C8C16DC180913501813089F447D686
S113102081709078992324F401978E6F9F6F0196B5
S11310308F5F813041F0823049F02C2F9D2F08C002
S11310402C2F9D2F05C028E090E002C029E090E0FD
S113105080913601823039F080913501882329F05E
S1131060C22FD92F02C0C4E0D0E01092350140C194
S113107080913501813089F41AD681709078992352
S113108024F401978E6F9F6F01968F5F813041F03A
S1131090823049F02C2F9D2F08C02C2F9D2F05C086
S11310A028E090E002C029E090E08091360182308F
S11310B039F080913501882329F0C22FD92F02C03D
S11310C0C4E0D0E01092350113C180913501813024
S11310D089F4EDD581709078992324F401978E6F6B
S11310E09F6F01968F5F813041F0823049F02C2F41
S11310F09D2F08C02C2F9D2F05C026E090E002C034
S113110027E090E080913601823039F080913501FA
S1131110882329F0C22FD92F02C0C3E0D0E0109257
S11311203501E6C080913501813089F4C0D58170E4
S11311309078992324F401978E6F9F6F01968F5FA7
S1131140813041F0823049F02C2F9D2F08C02C2F84
S11311509D2F05C026E090E002C027E090E080913A
S11311603601823039F080913501882329F0C22F6D
S1131170D92F02C0C2E0D0E010923501B9C08091ED
S11311803501813089F493D581709078992324F4C2
S113119001978E6F9F6F01968F5F813041F082308F
S11311A049F02C2F9D2F08C02C2F9D2F05C025E022
S11311B090E002C024E090E080913601823039F062
S11311C080913501882329F0C22FD92F02C0C9E0AC
S11311D0D0E0109235018CC080913501813089F4C2
S11311E066D581709078992324F401978E6F9F6F50
S11311F001968F5F813041F0823049F02C2F9D2F72
S113120008C02C2F9D2F05C024E090E002C025E0EB
S113121090E080913601823039F080913501882345
S113122029F0C22FD92F02C0C8E0D0E010923601B5
S11312305FC080913501813089F439D5817090780F
S1131240992324F401978E6F9F6F01968F5F8130ED
S113125041F0823049F02C2F9D2F08C02C2F9D2F58
S113126005C022E090E002C023E090E080913601C6
S1131270823039F080913501882329F0C22FD92F8B
S113128002C0C7E0D0E01092350132C08091350130
S1131290813089F40CD581709078992324F40197D6
S11312A08E6F9F6F01968F5F813041F0823049F0DD
S11312B02C2F9D2F08C02C2F9D2F05C022E090E0DD
S11312C002C023E090E080913601823039F08091B1
S11312D03501882329F0C22FD92F02C0C6E0D0E0FF
S11312E01092350105C0C1E0D0E002C0C7E0D0E0F3
S11312F0CA30D10508F062C0FE01EC59FF4F88C422
S1131300C1E0D0E05BC08091070181508093070168
S1131310809106018F5F8093060150C08091070180
S1131320815080930701809106018E5F80930601AE
S113133045C0809107018F5F80930701809106016A
S11313408E5F809306013AC0809107018F5F80937E
S11313500701809106018F5F809306012FC0809161
S113136007018F5F8093070180910601815080936C
S1131370060124C0809107018F5F8093070180914B
S1131380060182508093060119C0809107018150A3
S11313908093070180910601825080930601C8E082
S11313A0D0E00CC0809107018150809307018091A7
S11313B00601815080930601C9E0D0E0CE01DF919F
S11313C0CF910895CF93DF93399A389A3A9A3B9AFA
S11313D03C9A409A419A83EC99E00197F1F700C056
S11313E0000040988BE594E40197F1F700C00000F9
S11313F0409A419881E20E949C0183E10E949C01F1
S113140086E00E949C0182EC0E949C0180E20E9482
S11314109C0189E00E949C0180E80E949C0180E478
S11314200E949C01C8EFD1E061E080E00E947E014F
S113143021972097C9F788E00E949C018CE00E94C4
S11314409C01DF91CF91089580E80E949C0180E483
S11314500E949C011092340310923503ECE3F1E0F6
S113146084E393E01192E817F907E1F70895262F32
S113147026952695269590E034E5239F800D911DB1
S11314801124442389F0FC01E45CFE4F677081E081
S113149090E09C0102C0220F331F6A95E2F7B90164
S11314A08081682B60830895FC01E45CFE4F6770C3
S11314B081E090E09C0102C0220F331F6A95E2F79D
S11314C0B901609580816823608308954F925F928B
S11314D06F927F928F929F92AF92BF92CF92DF9240
S11314E0EF92FF920F931F93CF93DF93562E262FE5
S11314F030E05901AA0CBB1CAA0CBB1CA20EB31EE3
S11315001A141B040CF05BC0E901CC0FDD1FCC0FD7
S1131510DD1FCC0FDD1FC21BD30B612C882E912C39
S113152080E2881A9108C401880F991F880F991FB7
S1131530880E991E412C0F2EF5E3CF2EF3E0DF2EFB
S1131540F02D0F2EF4E3EF2EF3E0FF2EF02D2AC042
S1131550F801249130E0872D652D4ED302C03595D6
S113156027958A95E2F720FF09C0F6016081670D8F
S1131570F701808141E0860D7ADF08C0F6016081C1
S1131580670DF7018081442D860D71DF7394872DDB
S113159090E08C179D07E4F26394862D90E08A1501
S11315A09B056CF41C161D06BCF7862D652D24D3F3
S11315B08401080F111D04521F4F742CC9CF909140
S11315C034039F5F852D880F880F850D890F84351F
S11315D018F4809334030DC010923403E5E3F3E070
S11315E090819F5F852D880F880F880F8519890F3B
S11315F0808380913503803320F01092340310925D
S11316003503DF91CF911F910F91FF90EF90DF9001
S1131610CF90BF90AF909F908F907F906F905F908E
S11316204F9008951F93CF93DF93EC01162F888179
S1131630882331F02196612F49DF89918111FBCFF5
S1131640DF91CF911F9108950F931F93CF93DF9351
S113165080E80E949C0180E40E949C01CCE3D1E0DC
S113166004E313E061E089910E947E01C017D10771
S1131670C9F7DF91CF911F910F91089581309105A2
S113168049F08230910519F0892B09F0D5C081E029
S113169090E00895809138038111D1C0D5DE41E0F6
S11316A061E080910501E3DE8091050141E061E0A4
S11316B08150DDDE8091050141E061E08250D7DE9A
S11316C08091050141E061E08350D1DE8091050104
S11316D041E061E08F5FCBDE8091050141E061E094
S11316E08E5FC5DE8091050141E061E08D5FBFDE64
S11316F08091050141E061E08450B9DE80910501EB
S113170041E061E08C5FB3DE8091050141E061E07E
S11317108B5FADDE8091050141E061E08550A7DE7D
S113172041E06FE280910401A2DE8091040141E076
S11317306FE281509CDE8091040141E06FE28250AF
S113174096DE8091040141E06FE2835090DE809147
S1131750040141E06FE28F5F8ADE8091040141E081
S11317606FE28E5F84DE8091040141E06FE28D5F61
S11317707EDE8091040141E06FE2845078DE809146
S1131780040141E06FE28C5F72DE8091040141E06C
S11317906FE285506CDE8091040141E06FE28B5F63
S11317A066DE41E0609108018091090160DE60918C
S11317B008016F5F8091090141E0815058DE60911A
S11317C008016F5F41E08091090151DE60910801D9
S11317D06F5F8091090141E08F5F49DE80910901CB
S11317E041E0609108018F5F42DE60910801615021
S11317F08091090141E08F5F3ADE609108016150F8
S113180041E08091090133DE6091080161508091CB
S1131810090141E081502BDE8091090141E0609192
S11318200801815024DE109234038AE0809335034A
S11318300BDF82E090E0089580E090E0089582E07C
S113184090E008958BE0809381008DE790E0909381
S113185089008093880082E080936F001092850055
S1131860109284008091120190911301A0911401AF
S1131870B09115018093370190933801A0933901F9
S1131880B0933A018FB780688FBF08951F920F926B
S11318900FB60F9211248F939F93AF93BF938091B0
S11318A0370190913801A0913901B0913A01019723
S11318B0A109B1098093370190933801A0933901AC
S11318C0B0933A01892B8A2B8B2B99F481E0809376
S11318D03B018091120190911301A0911401B091E8
S11318E015018093370190933801A0933901B09387
S11318F03A01BF91AF919F918F910F900FBE0F90BE
S11319001F901895181619069CF440E050E077E0F3
S113191063E00BC000002150310921153105D1F7D6
S11319204F5F5F4F4817590719F0272F362FF2CF13
S1131930089528988BB9299A0000299882E090E0AC
S1131940E1CF089584E690E0DDDF88E3F2DF86E00E
S1131950F0DF8FE0EEDF81E0ECDF8AE090E0D2CFD1
S11319600895EAE7F0E08081806E80830895ECE7D3
S1131970F0E09081906490839081907F9083908137
S11319808F70982B908381EE94E00197F1F700C05B
S11319900000EAE7F0E0808180648083808184FF36
S11319A0FDCF809178009091790008958FEF84B9EC
S11319B015B88AB91BB810923A031092390384E619
S11319C090E0A0E0B0E080933B0390933C03A093AD
S11319D03D03B0933E0380933F0390934003A09351
S11319E04103B09342032FE931E030934403209341
S11319F04303109246031092450380934703909348
S1131A004803A0934903B0934A0380934B039093F4
S1131A104C03A0934D03B0934E032EEF31E030936B
S1131A20500320934F03109252031092510340919C
S1131A300E0150910F0160911001709111014093BA
S1131A405303509354036093550370935603409388
S1131A505703509358036093590370935A0320ED2E
S1131A6035E030935C0320935B0310925E03109285
S1131A705D0340910A0150910B0160910C0170913A
S1131A800D0140935F03509360036093610370936F
S1131A9062034093630350936403609365037093FC
S1131AA0660323ED37E030936803209367031092B5
S1131AB06A031092690342E350E060E070E04093EF
S1131AC06B0350936C0360936D0370936E034093A8
S1131AD06F035093700360937103709372032DE549
S1131AE032E03093740320937303109276031092C0
S1131AF075038093770390937803A0937903B0934D
S1131B007A0380937B0390937C03A0937D03B0932B
S1131B107E038EE39BE09093800380937F0312DF28
S1131B2020DF50DC91DC61E086E191E07BDD109206
S1131B3034038AE08093350387DD0F2EF9E3CF2E3B
S1131B40F3E0DF2EF02D0F2EF1E8EF2EF3E0FF2E61
S1131B50F02D0F2EF2E38F2E912CA12CB12CF02D11
S1131B6081E005DF835092409093370380933603DE
S1131B7083E0FDDE835092409093C9038093C803B1
S1131B80E6018092120190921301A0921401B09286
S1131B9015018092370190923801A0923901B092D8
S1131BA03A0150DE8E014E815F81688579858A8194
S1131BB09B81AC81BD81481759076A077B0758F0A0
S1131BC0EA85FB85888199810995998388831E829A
S1131BD01F8218861986F80186819781A085B185B0
S1131BE0C296A11DB11D86839783A087B1872C96C9
S1131BF0CE15DF0531F6B4CF991B79E004C0991FE7
S1131C00961708F0961B881F7A95C9F78095089552
S1131C10EE0FFF1F0590F491E02D09948F929F928F
S1131C20AF92BF92CF92DF92EF92FF92CF93DF9366
S1131C30EC01688179818A819B8161157105810537
S1131C40910521F464E279ED8BE597E02DE133EF22
S1131C5041E050E03AD049015A019B01AC01A7EAA6
S1131C60B1E44FD06B017C01ACEEB4EFA50194015B
S1131C7054D0C60ED71EE81EF91EF7FE06C081E03A
S1131C80C81AD108E10880E8F80AC882D982EA8231
S1131C90FB82C6019F77DF91CF91FF90EF90DF9099
S1131CA0CF90BF90AF909F908F900895B7CF80E072
S1131CB091E0B4CFA0E0B0E08093000190930101E3
S1131CC0A0930201B09303010895052E97FB16F427
S1131CD000940FD057FD05D024D007FC02D046F461
S1131CE008C050954095309521953F4F4F4F5F4F19
S1131CF0089590958095709561957F4F8F4F9F4F74
S1131D00089531D0A59F900DB49F900DA49F800D90
S1131D10911D11240895B7FFF4CFF3DF821B930BB9
S1131D200895A1E21A2EAA1BBB1BFD010DC0AA1F18
S1131D30BB1FEE1FFF1FA217B307E407F50720F030
S1131D40A21BB30BE40BF50B661F771F881F991FAB
S1131D501A9469F760957095809590959B01AC01F4
S1131D60BD01CF010895A29FB001B39FC001A39FFD
S1131D70700D811D1124911DB29F700D811D1124C0
S10B1D80911D0895F894FFCFB2
S1131D88010000002A2A182A182A580200005802BA
S1131D980000010000004D6F766520626F746820B2
S1131DA8737469636B7320746F207265616479203E
S1071DB8757000003E
S9030000FC
